{
  "contractName": "Asset",
  "abi": [
    {
      "inputs": [],
      "stateMutability": "nonpayable",
      "type": "constructor"
    },
    {
      "anonymous": false,
      "inputs": [
        {
          "indexed": true,
          "internalType": "address",
          "name": "owner",
          "type": "address"
        },
        {
          "indexed": true,
          "internalType": "address",
          "name": "approved",
          "type": "address"
        },
        {
          "indexed": true,
          "internalType": "uint256",
          "name": "tokenId",
          "type": "uint256"
        }
      ],
      "name": "Approval",
      "type": "event"
    },
    {
      "anonymous": false,
      "inputs": [
        {
          "indexed": true,
          "internalType": "address",
          "name": "owner",
          "type": "address"
        },
        {
          "indexed": true,
          "internalType": "address",
          "name": "operator",
          "type": "address"
        },
        {
          "indexed": false,
          "internalType": "bool",
          "name": "approved",
          "type": "bool"
        }
      ],
      "name": "ApprovalForAll",
      "type": "event"
    },
    {
      "anonymous": false,
      "inputs": [
        {
          "indexed": true,
          "internalType": "address",
          "name": "from",
          "type": "address"
        },
        {
          "indexed": true,
          "internalType": "address",
          "name": "to",
          "type": "address"
        },
        {
          "indexed": true,
          "internalType": "uint256",
          "name": "tokenId",
          "type": "uint256"
        }
      ],
      "name": "Transfer",
      "type": "event"
    },
    {
      "inputs": [
        {
          "internalType": "address",
          "name": "to",
          "type": "address"
        },
        {
          "internalType": "uint256",
          "name": "tokenId",
          "type": "uint256"
        }
      ],
      "name": "approve",
      "outputs": [],
      "stateMutability": "nonpayable",
      "type": "function"
    },
    {
      "inputs": [
        {
          "internalType": "uint256",
          "name": "",
          "type": "uint256"
        }
      ],
      "name": "asset",
      "outputs": [
        {
          "internalType": "string",
          "name": "",
          "type": "string"
        }
      ],
      "stateMutability": "view",
      "type": "function",
      "constant": true
    },
    {
      "inputs": [
        {
          "internalType": "address",
          "name": "owner",
          "type": "address"
        }
      ],
      "name": "balanceOf",
      "outputs": [
        {
          "internalType": "uint256",
          "name": "",
          "type": "uint256"
        }
      ],
      "stateMutability": "view",
      "type": "function",
      "constant": true
    },
    {
      "inputs": [],
      "name": "baseURI",
      "outputs": [
        {
          "internalType": "string",
          "name": "",
          "type": "string"
        }
      ],
      "stateMutability": "view",
      "type": "function",
      "constant": true
    },
    {
      "inputs": [
        {
          "internalType": "uint256",
          "name": "tokenId",
          "type": "uint256"
        }
      ],
      "name": "getApproved",
      "outputs": [
        {
          "internalType": "address",
          "name": "",
          "type": "address"
        }
      ],
      "stateMutability": "view",
      "type": "function",
      "constant": true
    },
    {
      "inputs": [
        {
          "internalType": "address",
          "name": "owner",
          "type": "address"
        },
        {
          "internalType": "address",
          "name": "operator",
          "type": "address"
        }
      ],
      "name": "isApprovedForAll",
      "outputs": [
        {
          "internalType": "bool",
          "name": "",
          "type": "bool"
        }
      ],
      "stateMutability": "view",
      "type": "function",
      "constant": true
    },
    {
      "inputs": [],
      "name": "name",
      "outputs": [
        {
          "internalType": "string",
          "name": "",
          "type": "string"
        }
      ],
      "stateMutability": "view",
      "type": "function",
      "constant": true
    },
    {
      "inputs": [
        {
          "internalType": "uint256",
          "name": "tokenId",
          "type": "uint256"
        }
      ],
      "name": "ownerOf",
      "outputs": [
        {
          "internalType": "address",
          "name": "",
          "type": "address"
        }
      ],
      "stateMutability": "view",
      "type": "function",
      "constant": true
    },
    {
      "inputs": [
        {
          "internalType": "address",
          "name": "from",
          "type": "address"
        },
        {
          "internalType": "address",
          "name": "to",
          "type": "address"
        },
        {
          "internalType": "uint256",
          "name": "tokenId",
          "type": "uint256"
        }
      ],
      "name": "safeTransferFrom",
      "outputs": [],
      "stateMutability": "nonpayable",
      "type": "function"
    },
    {
      "inputs": [
        {
          "internalType": "address",
          "name": "from",
          "type": "address"
        },
        {
          "internalType": "address",
          "name": "to",
          "type": "address"
        },
        {
          "internalType": "uint256",
          "name": "tokenId",
          "type": "uint256"
        },
        {
          "internalType": "bytes",
          "name": "_data",
          "type": "bytes"
        }
      ],
      "name": "safeTransferFrom",
      "outputs": [],
      "stateMutability": "nonpayable",
      "type": "function"
    },
    {
      "inputs": [
        {
          "internalType": "address",
          "name": "operator",
          "type": "address"
        },
        {
          "internalType": "bool",
          "name": "approved",
          "type": "bool"
        }
      ],
      "name": "setApprovalForAll",
      "outputs": [],
      "stateMutability": "nonpayable",
      "type": "function"
    },
    {
      "inputs": [
        {
          "internalType": "bytes4",
          "name": "interfaceId",
          "type": "bytes4"
        }
      ],
      "name": "supportsInterface",
      "outputs": [
        {
          "internalType": "bool",
          "name": "",
          "type": "bool"
        }
      ],
      "stateMutability": "view",
      "type": "function",
      "constant": true
    },
    {
      "inputs": [],
      "name": "symbol",
      "outputs": [
        {
          "internalType": "string",
          "name": "",
          "type": "string"
        }
      ],
      "stateMutability": "view",
      "type": "function",
      "constant": true
    },
    {
      "inputs": [
        {
          "internalType": "uint256",
          "name": "index",
          "type": "uint256"
        }
      ],
      "name": "tokenByIndex",
      "outputs": [
        {
          "internalType": "uint256",
          "name": "",
          "type": "uint256"
        }
      ],
      "stateMutability": "view",
      "type": "function",
      "constant": true
    },
    {
      "inputs": [
        {
          "internalType": "address",
          "name": "owner",
          "type": "address"
        },
        {
          "internalType": "uint256",
          "name": "index",
          "type": "uint256"
        }
      ],
      "name": "tokenOfOwnerByIndex",
      "outputs": [
        {
          "internalType": "uint256",
          "name": "",
          "type": "uint256"
        }
      ],
      "stateMutability": "view",
      "type": "function",
      "constant": true
    },
    {
      "inputs": [
        {
          "internalType": "uint256",
          "name": "tokenId",
          "type": "uint256"
        }
      ],
      "name": "tokenURI",
      "outputs": [
        {
          "internalType": "string",
          "name": "",
          "type": "string"
        }
      ],
      "stateMutability": "view",
      "type": "function",
      "constant": true
    },
    {
      "inputs": [],
      "name": "totalSupply",
      "outputs": [
        {
          "internalType": "uint256",
          "name": "",
          "type": "uint256"
        }
      ],
      "stateMutability": "view",
      "type": "function",
      "constant": true
    },
    {
      "inputs": [
        {
          "internalType": "address",
          "name": "from",
          "type": "address"
        },
        {
          "internalType": "address",
          "name": "to",
          "type": "address"
        },
        {
          "internalType": "uint256",
          "name": "tokenId",
          "type": "uint256"
        }
      ],
      "name": "transferFrom",
      "outputs": [],
      "stateMutability": "nonpayable",
      "type": "function"
    },
    {
      "inputs": [
        {
          "internalType": "address",
          "name": "player",
          "type": "address"
        }
      ],
      "name": "awardItem",
      "outputs": [
        {
          "internalType": "uint256",
          "name": "",
          "type": "uint256"
        }
      ],
      "stateMutability": "nonpayable",
      "type": "function"
    },
    {
      "inputs": [
        {
          "internalType": "uint256",
          "name": "tokenId",
          "type": "uint256"
        },
        {
          "internalType": "string",
          "name": "_tokenURI",
          "type": "string"
        }
      ],
      "name": "setTokenURI",
      "outputs": [],
      "stateMutability": "nonpayable",
      "type": "function"
    }
  ],
  "bytecode": "0x60806040523480156200001157600080fd5b5060405180604001604052806005815260200164105cdcd95d60da1b815250604051806040016040528060058152602001641054d4d15560da1b815250620000666301ffc9a760e01b620000d060201b60201c565b81516200007b90600690602085019062000155565b5080516200009190600790602084019062000155565b50620000a46380ac58cd60e01b620000d0565b620000b6635b5e139f60e01b620000d0565b620000c863780e9d6360e01b620000d0565b505062000201565b6001600160e01b0319808216141562000130576040805162461bcd60e51b815260206004820152601c60248201527f4552433136353a20696e76616c696420696e7465726661636520696400000000604482015290519081900360640190fd5b6001600160e01b0319166000908152602081905260409020805460ff19166001179055565b828054600181600116156101000203166002900490600052602060002090601f0160209004810192826200018d5760008555620001d8565b82601f10620001a857805160ff1916838001178555620001d8565b82800160010185558215620001d8579182015b82811115620001d8578251825591602001919060010190620001bb565b50620001e6929150620001ea565b5090565b5b80821115620001e65760008155600101620001eb565b611de380620002116000396000f3fe608060405234801561001057600080fd5b506004361061012c5760003560e01c80636352211e116100ad578063a22cb46511610071578063a22cb4651461043c578063b88d4fde1461046a578063c87b56dd14610530578063e985e9c51461054d578063f2fb21201461057b5761012c565b80636352211e146103cc5780636c0360eb146103e957806370a08231146103f15780638ea06f811461041757806395d89b41146104345761012c565b806318160ddd116100f457806318160ddd146102fd57806323b872dd146103175780632f745c591461034d57806342842e0e146103795780634f6ccce7146103af5761012c565b806301ffc9a71461013157806306fdde031461016c578063081812fc146101e9578063095ea7b314610222578063162094c414610250575b600080fd5b6101586004803603602081101561014757600080fd5b50356001600160e01b0319166105a1565b604080519115158252519081900360200190f35b6101746105c4565b6040805160208082528351818301528351919283929083019185019080838360005b838110156101ae578181015183820152602001610196565b50505050905090810190601f1680156101db5780820380516001836020036101000a031916815260200191505b509250505060405180910390f35b610206600480360360208110156101ff57600080fd5b503561065a565b604080516001600160a01b039092168252519081900360200190f35b61024e6004803603604081101561023857600080fd5b506001600160a01b0381351690602001356106bc565b005b61024e6004803603604081101561026657600080fd5b8135919081019060408101602082013564010000000081111561028857600080fd5b82018360208201111561029a57600080fd5b803590602001918460018302840111640100000000831117156102bc57600080fd5b91908080601f016020809104026020016040519081016040528093929190818152602001838380828437600092019190915250929550610797945050505050565b6103056107a5565b60408051918252519081900360200190f35b61024e6004803603606081101561032d57600080fd5b506001600160a01b038135811691602081013590911690604001356107b6565b6103056004803603604081101561036357600080fd5b506001600160a01b03813516906020013561080d565b61024e6004803603606081101561038f57600080fd5b506001600160a01b03813581169160208101359091169060400135610838565b610305600480360360208110156103c557600080fd5b5035610853565b610206600480360360208110156103e257600080fd5b5035610869565b610174610891565b6103056004803603602081101561040757600080fd5b50356001600160a01b03166108f2565b6101746004803603602081101561042d57600080fd5b503561095a565b610174610a03565b61024e6004803603604081101561045257600080fd5b506001600160a01b0381351690602001351515610a64565b61024e6004803603608081101561048057600080fd5b6001600160a01b038235811692602081013590911691604082013591908101906080810160608201356401000000008111156104bb57600080fd5b8201836020820111156104cd57600080fd5b803590602001918460018302840111640100000000831117156104ef57600080fd5b91908080601f016020809104026020016040519081016040528093929190818152602001838380828437600092019190915250929550610b69945050505050565b6101746004803603602081101561054657600080fd5b5035610bc7565b6101586004803603604081101561056357600080fd5b506001600160a01b0381358116916020013516610e48565b6103056004803603602081101561059157600080fd5b50356001600160a01b0316610e76565b6001600160e01b0319811660009081526020819052604090205460ff165b919050565b60068054604080516020601f60026000196101006001881615020190951694909404938401819004810282018101909252828152606093909290918301828280156106505780601f1061062557610100808354040283529160200191610650565b820191906000526020600020905b81548152906001019060200180831161063357829003601f168201915b5050505050905090565b600061066582610e9a565b6106a05760405162461bcd60e51b815260040180806020018281038252602c815260200180611cac602c913960400191505060405180910390fd5b506000908152600460205260409020546001600160a01b031690565b60006106c782610869565b9050806001600160a01b0316836001600160a01b0316141561071a5760405162461bcd60e51b8152600401808060200182810382526021815260200180611d5c6021913960400191505060405180910390fd5b806001600160a01b031661072c610ea7565b6001600160a01b0316148061074d575061074d81610748610ea7565b610e48565b6107885760405162461bcd60e51b8152600401808060200182810382526038815260200180611bff6038913960400191505060405180910390fd5b6107928383610eab565b505050565b6107a18282610f19565b5050565b60006107b16002610f7c565b905090565b6107c76107c1610ea7565b82610f87565b6108025760405162461bcd60e51b8152600401808060200182810382526031815260200180611d7d6031913960400191505060405180910390fd5b61079283838361102b565b6001600160a01b038216600090815260016020526040812061082f9083611177565b90505b92915050565b61079283838360405180602001604052806000815250610b69565b600080610861600284611183565b509392505050565b600061083282604051806060016040528060298152602001611c61602991396002919061119f565b60098054604080516020601f60026000196101006001881615020190951694909404938401819004810282018101909252828152606093909290918301828280156106505780601f1061062557610100808354040283529160200191610650565b60006001600160a01b0382166109395760405162461bcd60e51b815260040180806020018281038252602a815260200180611c37602a913960400191505060405180910390fd5b6001600160a01b038216600090815260016020526040902061083290610f7c565b600b818154811061096a57600080fd5b600091825260209182902001805460408051601f60026000196101006001871615020190941693909304928301859004850281018501909152818152935090918301828280156109fb5780601f106109d0576101008083540402835291602001916109fb565b820191906000526020600020905b8154815290600101906020018083116109de57829003601f168201915b505050505081565b60078054604080516020601f60026000196101006001881615020190951694909404938401819004810282018101909252828152606093909290918301828280156106505780601f1061062557610100808354040283529160200191610650565b610a6c610ea7565b6001600160a01b0316826001600160a01b03161415610ad2576040805162461bcd60e51b815260206004820152601960248201527f4552433732313a20617070726f766520746f2063616c6c657200000000000000604482015290519081900360640190fd5b8060056000610adf610ea7565b6001600160a01b03908116825260208083019390935260409182016000908120918716808252919093529120805460ff191692151592909217909155610b23610ea7565b6001600160a01b03167f17307eab39ab6107e8899845ad3d59bd9653f200f220920489ca2b5937696c318360405180821515815260200191505060405180910390a35050565b610b7a610b74610ea7565b83610f87565b610bb55760405162461bcd60e51b8152600401808060200182810382526031815260200180611d7d6031913960400191505060405180910390fd5b610bc1848484846111b6565b50505050565b6060610bd282610e9a565b610c0d5760405162461bcd60e51b815260040180806020018281038252602f815260200180611d2d602f913960400191505060405180910390fd5b60008281526008602090815260408083208054825160026001831615610100026000190190921691909104601f810185900485028201850190935282815292909190830182828015610ca05780601f10610c7557610100808354040283529160200191610ca0565b820191906000526020600020905b815481529060010190602001808311610c8357829003601f168201915b505050505090506000610cb1610891565b9050805160001415610cc5575090506105bf565b815115610d865780826040516020018083805190602001908083835b60208310610d005780518252601f199092019160209182019101610ce1565b51815160209384036101000a600019018019909216911617905285519190930192850191508083835b60208310610d485780518252601f199092019160209182019101610d29565b6001836020036101000a03801982511681845116808217855250505050505090500192505050604051602081830303815290604052925050506105bf565b80610d9085611208565b6040516020018083805190602001908083835b60208310610dc25780518252601f199092019160209182019101610da3565b51815160209384036101000a600019018019909216911617905285519190930192850191508083835b60208310610e0a5780518252601f199092019160209182019101610deb565b6001836020036101000a0380198251168184511680821785525050505050509050019250505060405160208183030381529060405292505050919050565b6001600160a01b03918216600090815260056020908152604080832093909416825291909152205460ff1690565b6000610e82600a6112e3565b6000610e8e600a6112ec565b905061083283826112f0565b600061083260028361141e565b3390565b600081815260046020526040902080546001600160a01b0319166001600160a01b0384169081179091558190610ee082610869565b6001600160a01b03167f8c5be1e5ebec7d5bd14f71427d1e84f3dd0314c0f7b2291e5b200ac8c7c3b92560405160405180910390a45050565b610f2282610e9a565b610f5d5760405162461bcd60e51b815260040180806020018281038252602c815260200180611cd8602c913960400191505060405180910390fd5b6000828152600860209081526040909120825161079292840190611ab9565b6000610832826112ec565b6000610f9282610e9a565b610fcd5760405162461bcd60e51b815260040180806020018281038252602c815260200180611bd3602c913960400191505060405180910390fd5b6000610fd883610869565b9050806001600160a01b0316846001600160a01b031614806110135750836001600160a01b03166110088461065a565b6001600160a01b0316145b8061102357506110238185610e48565b949350505050565b826001600160a01b031661103e82610869565b6001600160a01b0316146110835760405162461bcd60e51b8152600401808060200182810382526029815260200180611d046029913960400191505060405180910390fd5b6001600160a01b0382166110c85760405162461bcd60e51b8152600401808060200182810382526024815260200180611baf6024913960400191505060405180910390fd5b6110d3838383610792565b6110de600082610eab565b6001600160a01b0383166000908152600160205260409020611100908261142a565b506001600160a01b03821660009081526001602052604090206111239082611436565b5061113060028284611442565b5080826001600160a01b0316846001600160a01b03167fddf252ad1be2c89b69c2b068fc378daa952ba7f163c4a11628f55a4df523b3ef60405160405180910390a4505050565b600061082f8383611458565b600080808061119286866114bc565b9097909650945050505050565b60006111ac848484611537565b90505b9392505050565b6111c184848461102b565b6111cd84848484611601565b610bc15760405162461bcd60e51b8152600401808060200182810382526032815260200180611b7d6032913960400191505060405180910390fd5b60608161122d57506040805180820190915260018152600360fc1b60208201526105bf565b8160005b811561124557600101600a82049150611231565b60008167ffffffffffffffff8111801561125e57600080fd5b506040519080825280601f01601f191660200182016040528015611289576020820181803683370190505b50859350905060001982015b83156112da57600a840660300160f81b828280600190039350815181106112b857fe5b60200101906001600160f81b031916908160001a905350600a84049350611295565b50949350505050565b80546001019055565b5490565b6001600160a01b03821661134b576040805162461bcd60e51b815260206004820181905260248201527f4552433732313a206d696e7420746f20746865207a65726f2061646472657373604482015290519081900360640190fd5b61135481610e9a565b156113a6576040805162461bcd60e51b815260206004820152601c60248201527f4552433732313a20746f6b656e20616c7265616479206d696e74656400000000604482015290519081900360640190fd5b6113b260008383610792565b6001600160a01b03821660009081526001602052604090206113d49082611436565b506113e160028284611442565b5060405181906001600160a01b038416906000907fddf252ad1be2c89b69c2b068fc378daa952ba7f163c4a11628f55a4df523b3ef908290a45050565b600061082f8383611769565b600061082f8383611781565b600061082f8383611847565b60006111ac84846001600160a01b038516611891565b8154600090821061149a5760405162461bcd60e51b8152600401808060200182810382526022815260200180611b5b6022913960400191505060405180910390fd5b8260000182815481106114a957fe5b9060005260206000200154905092915050565b8154600090819083106115005760405162461bcd60e51b8152600401808060200182810382526022815260200180611c8a6022913960400191505060405180910390fd5b600084600001848154811061151157fe5b906000526020600020906002020190508060000154816001015492509250509250929050565b600082815260018401602052604081205482816115d25760405162461bcd60e51b81526004018080602001828103825283818151815260200191508051906020019080838360005b8381101561159757818101518382015260200161157f565b50505050905090810190601f1680156115c45780820380516001836020036101000a031916815260200191505b509250505060405180910390fd5b508460000160018203815481106115e557fe5b9060005260206000209060020201600101549150509392505050565b6000611615846001600160a01b0316611928565b61162157506001611023565b600061172f630a85bd0160e11b611636610ea7565b88878760405160240180856001600160a01b03168152602001846001600160a01b0316815260200183815260200180602001828103825283818151815260200191508051906020019080838360005b8381101561169d578181015183820152602001611685565b50505050905090810190601f1680156116ca5780820380516001836020036101000a031916815260200191505b5095505050505050604051602081830303815290604052906001600160e01b0319166020820180516001600160e01b038381831617835250505050604051806060016040528060328152602001611b7d603291396001600160a01b038816919061192e565b9050600081806020019051602081101561174857600080fd5b50516001600160e01b031916630a85bd0160e11b1492505050949350505050565b60009081526001919091016020526040902054151590565b6000818152600183016020526040812054801561183d57835460001980830191908101906000908790839081106117b457fe5b90600052602060002001549050808760000184815481106117d157fe5b60009182526020808320909101929092558281526001898101909252604090209084019055865487908061180157fe5b60019003818190600052602060002001600090559055866001016000878152602001908152602001600020600090556001945050505050610832565b6000915050610832565b60006118538383611769565b61188957508154600181810184556000848152602080822090930184905584548482528286019093526040902091909155610832565b506000610832565b6000828152600184016020526040812054806118f65750506040805180820182528381526020808201848152865460018181018955600089815284812095516002909302909501918255915190820155865486845281880190925292909120556111af565b8285600001600183038154811061190957fe5b90600052602060002090600202016001018190555060009150506111af565b3b151590565b60606111ac84846000858561194285611928565b611993576040805162461bcd60e51b815260206004820152601d60248201527f416464726573733a2063616c6c20746f206e6f6e2d636f6e7472616374000000604482015290519081900360640190fd5b600080866001600160a01b031685876040518082805190602001908083835b602083106119d15780518252601f1990920191602091820191016119b2565b6001836020036101000a03801982511681845116808217855250505050505090500191505060006040518083038185875af1925050503d8060008114611a33576040519150601f19603f3d011682016040523d82523d6000602084013e611a38565b606091505b5091509150611a48828286611a53565b979650505050505050565b60608315611a625750816111af565b825115611a725782518084602001fd5b60405162461bcd60e51b815260206004820181815284516024840152845185939192839260440191908501908083836000831561159757818101518382015260200161157f565b828054600181600116156101000203166002900490600052602060002090601f016020900481019282611aef5760008555611b35565b82601f10611b0857805160ff1916838001178555611b35565b82800160010185558215611b35579182015b82811115611b35578251825591602001919060010190611b1a565b50611b41929150611b45565b5090565b5b80821115611b415760008155600101611b4656fe456e756d657261626c655365743a20696e646578206f7574206f6620626f756e64734552433732313a207472616e7366657220746f206e6f6e20455243373231526563656976657220696d706c656d656e7465724552433732313a207472616e7366657220746f20746865207a65726f20616464726573734552433732313a206f70657261746f7220717565727920666f72206e6f6e6578697374656e7420746f6b656e4552433732313a20617070726f76652063616c6c6572206973206e6f74206f776e6572206e6f7220617070726f76656420666f7220616c6c4552433732313a2062616c616e636520717565727920666f7220746865207a65726f20616464726573734552433732313a206f776e657220717565727920666f72206e6f6e6578697374656e7420746f6b656e456e756d657261626c654d61703a20696e646578206f7574206f6620626f756e64734552433732313a20617070726f76656420717565727920666f72206e6f6e6578697374656e7420746f6b656e4552433732314d657461646174613a2055524920736574206f66206e6f6e6578697374656e7420746f6b656e4552433732313a207472616e73666572206f6620746f6b656e2074686174206973206e6f74206f776e4552433732314d657461646174613a2055524920717565727920666f72206e6f6e6578697374656e7420746f6b656e4552433732313a20617070726f76616c20746f2063757272656e74206f776e65724552433732313a207472616e736665722063616c6c6572206973206e6f74206f776e6572206e6f7220617070726f766564a2646970667358221220e4a1cdf64276579883d83e6d4e332d7728ba61af2070ca3f28186de8163ff2f864736f6c63430007060033",
  "immutableReferences": {},
  "source": "// SPDX-License-Identifier: agpl-3.0\r\n\r\npragma solidity ^0.7.6;\r\n\r\nimport \"@openzeppelin/contracts/token/ERC721/ERC721.sol\";\r\nimport \"@openzeppelin/contracts/utils/Counters.sol\";\r\n\r\ncontract Asset is ERC721 {\r\n  using Counters for Counters.Counter;\r\n  Counters.Counter private _tokenIds;\r\n  string[] public asset;\r\n  mapping(string => bool) _contractExists;\r\n\r\n  constructor() ERC721(\"Asset\", \"ASSET\") {\r\n  }\r\n\r\n  function awardItem(address player)\r\n      public\r\n      returns (uint256)\r\n  {\r\n      _tokenIds.increment();\r\n\r\n      uint256 newItemId = _tokenIds.current();\r\n      _mint(player, newItemId);\r\n      //_tokenIds.increment();\r\n\r\n      return newItemId;\r\n  }\r\n\r\n  function setTokenURI(uint256 tokenId, string memory _tokenURI) public {\r\n    _setTokenURI(tokenId, _tokenURI);\r\n  }\r\n\r\n  //tokenURI function obtains the url\r\n\r\n}",
  "sourcePath": "C:/Users/Ken/Coding/jewel-joy-homeguru/src/contracts/Asset.sol",
  "compiler": {
    "name": "solc",
    "version": "0.7.6+commit.7338295f.Emscripten.clang"
  },
  "schemaVersion": "3.4.1",
  "updatedAt": "2021-08-24T07:01:25.533Z",
  "networkType": "ethereum",
  "devdoc": {
    "kind": "dev",
    "methods": {
      "approve(address,uint256)": {
        "details": "See {IERC721-approve}."
      },
      "balanceOf(address)": {
        "details": "See {IERC721-balanceOf}."
      },
      "baseURI()": {
        "details": "Returns the base URI set via {_setBaseURI}. This will be automatically added as a prefix in {tokenURI} to each token's URI, or to the token ID if no specific URI is set for that token ID."
      },
      "getApproved(uint256)": {
        "details": "See {IERC721-getApproved}."
      },
      "isApprovedForAll(address,address)": {
        "details": "See {IERC721-isApprovedForAll}."
      },
      "name()": {
        "details": "See {IERC721Metadata-name}."
      },
      "ownerOf(uint256)": {
        "details": "See {IERC721-ownerOf}."
      },
      "safeTransferFrom(address,address,uint256)": {
        "details": "See {IERC721-safeTransferFrom}."
      },
      "safeTransferFrom(address,address,uint256,bytes)": {
        "details": "See {IERC721-safeTransferFrom}."
      },
      "setApprovalForAll(address,bool)": {
        "details": "See {IERC721-setApprovalForAll}."
      },
      "supportsInterface(bytes4)": {
        "details": "See {IERC165-supportsInterface}. Time complexity O(1), guaranteed to always use less than 30 000 gas."
      },
      "symbol()": {
        "details": "See {IERC721Metadata-symbol}."
      },
      "tokenByIndex(uint256)": {
        "details": "See {IERC721Enumerable-tokenByIndex}."
      },
      "tokenOfOwnerByIndex(address,uint256)": {
        "details": "See {IERC721Enumerable-tokenOfOwnerByIndex}."
      },
      "tokenURI(uint256)": {
        "details": "See {IERC721Metadata-tokenURI}."
      },
      "totalSupply()": {
        "details": "See {IERC721Enumerable-totalSupply}."
      },
      "transferFrom(address,address,uint256)": {
        "details": "See {IERC721-transferFrom}."
      }
    },
    "version": 1
  },
  "userdoc": {
    "kind": "user",
    "methods": {},
    "version": 1
  }
}