{
  "contractName": "LandContract",
  "abi": [
    {
      "inputs": [
        {
          "internalType": "contract Asset",
          "name": "addr",
          "type": "address"
        }
      ],
      "stateMutability": "nonpayable",
      "type": "constructor"
    },
    {
      "anonymous": false,
      "inputs": [
        {
          "indexed": false,
          "internalType": "uint256",
          "name": "landID",
          "type": "uint256"
        },
        {
          "indexed": false,
          "internalType": "string",
          "name": "location",
          "type": "string"
        },
        {
          "indexed": false,
          "internalType": "uint256",
          "name": "value",
          "type": "uint256"
        },
        {
          "indexed": false,
          "internalType": "address payable",
          "name": "owner",
          "type": "address"
        },
        {
          "indexed": false,
          "internalType": "bool",
          "name": "forSale",
          "type": "bool"
        }
      ],
      "name": "Add",
      "type": "event"
    },
    {
      "anonymous": false,
      "inputs": [
        {
          "indexed": false,
          "internalType": "uint256",
          "name": "landID",
          "type": "uint256"
        },
        {
          "indexed": false,
          "internalType": "string",
          "name": "location",
          "type": "string"
        },
        {
          "indexed": false,
          "internalType": "uint256",
          "name": "value",
          "type": "uint256"
        },
        {
          "indexed": false,
          "internalType": "address payable",
          "name": "owner",
          "type": "address"
        },
        {
          "indexed": false,
          "internalType": "bool",
          "name": "forSale",
          "type": "bool"
        }
      ],
      "name": "List",
      "type": "event"
    },
    {
      "anonymous": false,
      "inputs": [
        {
          "indexed": false,
          "internalType": "uint256",
          "name": "landID",
          "type": "uint256"
        },
        {
          "indexed": false,
          "internalType": "string",
          "name": "location",
          "type": "string"
        },
        {
          "indexed": false,
          "internalType": "uint256",
          "name": "value",
          "type": "uint256"
        },
        {
          "indexed": false,
          "internalType": "address payable",
          "name": "owner",
          "type": "address"
        },
        {
          "indexed": false,
          "internalType": "bool",
          "name": "forSale",
          "type": "bool"
        }
      ],
      "name": "Transfer",
      "type": "event"
    },
    {
      "inputs": [],
      "name": "a",
      "outputs": [
        {
          "internalType": "contract Asset",
          "name": "",
          "type": "address"
        }
      ],
      "stateMutability": "view",
      "type": "function",
      "constant": true
    },
    {
      "inputs": [],
      "name": "landCount",
      "outputs": [
        {
          "internalType": "uint256",
          "name": "",
          "type": "uint256"
        }
      ],
      "stateMutability": "view",
      "type": "function",
      "constant": true
    },
    {
      "inputs": [
        {
          "internalType": "uint256",
          "name": "",
          "type": "uint256"
        }
      ],
      "name": "lands",
      "outputs": [
        {
          "internalType": "uint256",
          "name": "landID",
          "type": "uint256"
        },
        {
          "internalType": "string",
          "name": "location",
          "type": "string"
        },
        {
          "internalType": "string",
          "name": "image",
          "type": "string"
        },
        {
          "internalType": "uint256",
          "name": "value",
          "type": "uint256"
        },
        {
          "internalType": "address payable",
          "name": "owner",
          "type": "address"
        },
        {
          "internalType": "bool",
          "name": "forSale",
          "type": "bool"
        }
      ],
      "stateMutability": "view",
      "type": "function",
      "constant": true
    },
    {
      "inputs": [],
      "name": "name",
      "outputs": [
        {
          "internalType": "string",
          "name": "",
          "type": "string"
        }
      ],
      "stateMutability": "view",
      "type": "function",
      "constant": true
    },
    {
      "inputs": [],
      "name": "owner",
      "outputs": [
        {
          "internalType": "address",
          "name": "",
          "type": "address"
        }
      ],
      "stateMutability": "view",
      "type": "function",
      "constant": true
    },
    {
      "inputs": [
        {
          "internalType": "string",
          "name": "_location",
          "type": "string"
        },
        {
          "internalType": "string",
          "name": "_image",
          "type": "string"
        },
        {
          "internalType": "uint256",
          "name": "_value",
          "type": "uint256"
        }
      ],
      "name": "addLand",
      "outputs": [],
      "stateMutability": "nonpayable",
      "type": "function"
    },
    {
      "inputs": [
        {
          "internalType": "uint256",
          "name": "_id",
          "type": "uint256"
        }
      ],
      "name": "buyLand",
      "outputs": [],
      "stateMutability": "payable",
      "type": "function",
      "payable": true
    },
    {
      "inputs": [
        {
          "internalType": "uint256",
          "name": "_id",
          "type": "uint256"
        },
        {
          "internalType": "uint256",
          "name": "_value",
          "type": "uint256"
        }
      ],
      "name": "listLand",
      "outputs": [],
      "stateMutability": "payable",
      "type": "function",
      "payable": true
    }
  ],
  "bytecode": "0x608060405260006002553480156200001657600080fd5b506040516200144738038062001447833981810160405260208110156200003c57600080fd5b5051604080518082019091526012808252714a6577656c204a6f7920486f6d656775727560701b60209092019182526200007991600091620000ae565b5060018054336001600160a01b031991821617909155600380549091166001600160a01b03929092169190911790556200015a565b828054600181600116156101000203166002900490600052602060002090601f016020900481019282620000e6576000855562000131565b82601f106200010157805160ff191683800117855562000131565b8280016001018555821562000131579182015b828111156200013157825182559160200191906001019062000114565b506200013f92915062000143565b5090565b5b808211156200013f576000815560010162000144565b6112dd806200016a6000396000f3fe60806040526004361061007b5760003560e01c8063ced395581161004e578063ced395581461028e578063d7bce658146102ab578063e261f1e5146102d2578063f35fb209146104015761007b565b806306fdde03146100805780630c73f23d1461010a5780630dbe671f146102485780638da5cb5b14610279575b600080fd5b34801561008c57600080fd5b50610095610424565b6040805160208082528351818301528351919283929083019185019080838360005b838110156100cf5781810151838201526020016100b7565b50505050905090810190601f1680156100fc5780820380516001836020036101000a031916815260200191505b509250505060405180910390f35b34801561011657600080fd5b506102466004803603606081101561012d57600080fd5b81019060208101813564010000000081111561014857600080fd5b82018360208201111561015a57600080fd5b8035906020019184600183028401116401000000008311171561017c57600080fd5b91908080601f01602080910402602001604051908101604052809392919081815260200183838082843760009201919091525092959493602081019350359150506401000000008111156101cf57600080fd5b8201836020820111156101e157600080fd5b8035906020019184600183028401116401000000008311171561020357600080fd5b91908080601f01602080910402602001604051908101604052809392919081815260200183838082843760009201919091525092955050913592506104b2915050565b005b34801561025457600080fd5b5061025d610828565b604080516001600160a01b039092168252519081900360200190f35b34801561028557600080fd5b5061025d610837565b610246600480360360208110156102a457600080fd5b5035610846565b3480156102b757600080fd5b506102c0610cf5565b60408051918252519081900360200190f35b3480156102de57600080fd5b506102fc600480360360208110156102f557600080fd5b5035610cfb565b604051808781526020018060200180602001868152602001856001600160a01b031681526020018415158152602001838103835288818151815260200191508051906020019080838360005b83811015610360578181015183820152602001610348565b50505050905090810190601f16801561038d5780820380516001836020036101000a031916815260200191505b50838103825287518152875160209182019189019080838360005b838110156103c05781810151838201526020016103a8565b50505050905090810190601f1680156103ed5780820380516001836020036101000a031916815260200191505b509850505050505050505060405180910390f35b6102466004803603604081101561041757600080fd5b5080359060200135610e55565b6000805460408051602060026001851615610100026000190190941693909304601f810184900484028201840190925281815292918301828280156104aa5780601f1061047f576101008083540402835291602001916104aa565b820191906000526020600020905b81548152906001019060200180831161048d57829003601f168201915b505050505081565b6001546001600160a01b03163314610503576040805162461bcd60e51b815260206004820152600f60248201526e29b437bab6321031329037bbb732b960891b604482015290519081900360640190fd5b6000835111610559576040805162461bcd60e51b815260206004820152601860248201527f4d75737420626520612076616c6964206c6f636174696f6e0000000000000000604482015290519081900360640190fd5b600081116105a0576040805162461bcd60e51b815260206004820152600f60248201526e4d75737420626520612076616c756560881b604482015290519081900360640190fd5b600280546001908101918290556040805160c08101825283815260208082018881528284018890526060830187905233608084015260a08301859052600095865260048252929094208151815591518051919492936106059390850192910190611206565b5060408201518051610621916002840191602090910190611206565b50606082015160038281019190915560808301516004928301805460a0909501516001600160a01b03199095166001600160a01b039283161760ff60a01b1916600160a01b95151595909502949094179093555460408051630797d90960e51b815230938101939093525192169163f2fb2120916024808201926020929091908290030181600087803b1580156106b757600080fd5b505af11580156106cb573d6000803e3d6000fd5b505050506040513d60208110156106e157600080fd5b505060035460015460025460408051632142170760e11b81523060048201526001600160a01b03938416602482015260448101929092525191909216916342842e0e91606480830192600092919082900301818387803b15801561074457600080fd5b505af1158015610758573d6000803e3d6000fd5b505050507fb89ec84ff7a8e45184b005a44c7cc48d0e92b5f6b78a5f9d768757d69768541260025484833360016040518086815260200180602001858152602001846001600160a01b031681526020018315158152602001828103825286818151815260200191508051906020019080838360005b838110156107e55781810151838201526020016107cd565b50505050905090810190601f1680156108125780820380516001836020036101000a031916815260200191505b50965050505050505060405180910390a1505050565b6003546001600160a01b031681565b6001546001600160a01b031681565b6000818152600460209081526040808320815160c08101835281548152600180830180548551600293821615610100026000190190911692909204601f810187900487028301870190955284825291949293858401939192918301828280156108f05780601f106108c5576101008083540402835291602001916108f0565b820191906000526020600020905b8154815290600101906020018083116108d357829003601f168201915b5050509183525050600282810180546040805160206001841615610100026000190190931694909404601f810183900483028501830190915280845293810193908301828280156109825780601f1061095757610100808354040283529160200191610982565b820191906000526020600020905b81548152906001019060200180831161096557829003601f168201915b5050509183525050600382015460208201526004909101546001600160a01b0381166040830152600160a01b900460ff1615156060909101526080810151815191925090158015906109d75750600254825111155b610a1e576040805162461bcd60e51b81526020600482015260136024820152721b185b9908191bd95cc81b9bdd08195e1a5cdd606a1b604482015290519081900360640190fd5b8160600151341015610a6a576040805162461bcd60e51b815260206004820152601060248201526f4e6f7420656e6f7567682066756e647360801b604482015290519081900360640190fd5b60a08201511515600114610abc576040805162461bcd60e51b81526020600482015260146024820152736c616e64206973206e6f7420666f722073616c6560601b604482015290519081900360640190fd5b6001600160a01b038116331415610b1a576040805162461bcd60e51b815260206004820152601a60248201527f62757965722063616e6e6f74206265206c616e64206f776e6572000000000000604482015290519081900360640190fd5b336080830152600060a08301819052838152600460209081526040909120835181558184015180518593610b55926001850192910190611206565b5060408201518051610b71916002840191602090910190611206565b506060820151600382015560808201516004909101805460a0909301511515600160a01b0260ff60a01b196001600160a01b039384166001600160a01b0319909516949094179390931692909217909155604051908216903480156108fc02916000818181858888f19350505050158015610bf0573d6000803e3d6000fd5b50600354825160408051632142170760e11b81526001600160a01b0385811660048301523360248301526044820193909352905191909216916342842e0e91606480830192600092919082900301818387803b158015610c4f57600080fd5b505af1158015610c63573d6000803e3d6000fd5b505050507ff6058d925aaac6fafc272442a7b5c5d8aac85c921100fd2e254e3ecf89f7ba3183836020015184606001513360006040518086815260200180602001858152602001846001600160a01b03168152602001831515815260200182810382528681815181526020019150805190602001908083836000838110156107e55781810151838201526020016107cd565b60025481565b6004602090815260009182526040918290208054600180830180548651600293821615610100026000190190911692909204601f810186900486028301860190965285825291949293909290830182828015610d985780601f10610d6d57610100808354040283529160200191610d98565b820191906000526020600020905b815481529060010190602001808311610d7b57829003601f168201915b50505060028085018054604080516020601f6000196101006001871615020190941695909504928301859004850281018501909152818152959695945090925090830182828015610e2a5780601f10610dff57610100808354040283529160200191610e2a565b820191906000526020600020905b815481529060010190602001808311610e0d57829003601f168201915b5050505060038301546004909301549192916001600160a01b0381169150600160a01b900460ff1686565b6000828152600460209081526040808320815160c08101835281548152600180830180548551600293821615610100026000190190911692909204601f81018790048702830187019095528482529194929385840193919291830182828015610eff5780601f10610ed457610100808354040283529160200191610eff565b820191906000526020600020905b815481529060010190602001808311610ee257829003601f168201915b5050509183525050600282810180546040805160206001841615610100026000190190931694909404601f81018390048302850183019091528084529381019390830182828015610f915780601f10610f6657610100808354040283529160200191610f91565b820191906000526020600020905b815481529060010190602001808311610f7457829003601f168201915b5050509183525050600382015460208201526004909101546001600160a01b0381166040830152600160a01b900460ff161515606090910152805190915015801590610fe05750600254815111155b611027576040805162461bcd60e51b81526020600482015260136024820152721b185b9908191bd95cc81b9bdd08195e1a5cdd606a1b604482015290519081900360640190fd5b60808101516001600160a01b03163314611088576040805162461bcd60e51b815260206004820152601a60248201527f796f7520617265206e6f7420746865206c616e64206f776e6572000000000000604482015290519081900360640190fd5b60a0810151156110d8576040805162461bcd60e51b81526020600482015260166024820152751b185b99081a5cc8185b1c9958591e481b1a5cdd195960521b604482015290519081900360640190fd5b600160a082018190526060820183905260008481526004602090815260409091208351815581840151805185949293611115938501920190611206565b5060408201518051611131916002840191602090910190611206565b5060608281015160038301556080808401516004909301805460a0958601511515600160a01b0260ff60a01b196001600160a01b039096166001600160a01b03199092169190911794909416939093179092556020848101516040805189815290810188905233938101849052600194810185905280830186815282519682019690965281517f860792ae13c1e1b4bfed2f0126e03c27cd34ceddf6b678ee73493c134c4a2e33968a9693958a959094939260c0840191880190808383600083156107e55781810151838201526020016107cd565b828054600181600116156101000203166002900490600052602060002090601f01602090048101928261123c5760008555611282565b82601f1061125557805160ff1916838001178555611282565b82800160010185558215611282579182015b82811115611282578251825591602001919060010190611267565b5061128e929150611292565b5090565b5b8082111561128e576000815560010161129356fea26469706673582212207c7f0578e35fb246756ba6fa3ca18316ea5eb44c4c67f5c8f3474706832d79dd64736f6c63430007060033",
  "immutableReferences": {},
  "source": "// SPDX-License-Identifier: agpl-3.0\r\n\r\npragma solidity ^0.7.6;\r\n\r\nimport \"./Asset.sol\";\r\n\r\n\r\ncontract LandContract {\r\n\r\n  string public name;\r\n  address public owner;\r\n  uint public landCount = 0;\r\n  Asset public a;\r\n  \r\n  mapping(uint => Land) public lands;\r\n\r\n  struct Land {\r\n    uint landID;\r\n    string location;\r\n    string image;\r\n    uint value;\r\n    address payable owner;\r\n    bool forSale;\r\n  }\r\n\r\n  constructor(Asset addr) {\r\n    name = \"Jewel Joy Homeguru\";\r\n    owner = msg.sender;\r\n    a = addr;\r\n  }\r\n  \r\n  \r\n  event Add(\r\n    uint landID, \r\n    string location, \r\n    uint value, \r\n    address payable owner, \r\n    bool forSale\r\n  );\r\n\r\n  event Transfer(\r\n    uint landID, \r\n    string location, \r\n    uint value, \r\n    address payable owner, \r\n    bool forSale\r\n  );\r\n\r\n  event List(\r\n    uint landID, \r\n    string location, \r\n    uint value, \r\n    address payable owner, \r\n    bool forSale\r\n  );\r\n    \r\n  modifier isOwner {\r\n    require(msg.sender == owner, 'Should be owner');\r\n    _;\r\n  } \r\n\r\n  function addLand(string memory _location, string memory _image, uint _value) public isOwner {\r\n    // Require a valid location\r\n    require(bytes(_location).length > 0, 'Must be a valid location');\r\n    // Requie a valid value\r\n    require(_value > 0, 'Must be a value');\r\n    // Increment land count\r\n    landCount++;\r\n    // Add land\r\n    lands[landCount] = Land(landCount, _location, _image, _value, msg.sender, true);\r\n    a.awardItem(address(this));\r\n    a.safeTransferFrom(address(this), owner, landCount);\r\n\r\n    // Trigger an event\r\n    emit Add(landCount, _location, _value, msg.sender, true);\r\n  }\r\n\r\n  function buyLand(uint _id) public payable {\r\n    // Fetch the land\r\n    Land memory _land = lands[_id];\r\n    // Fetch the owner\r\n    address payable _landHolder = _land.owner;\r\n    // Make sure the Land is valid\r\n    require(_land.landID > 0 && _land.landID <= landCount, 'land does not exist');\r\n    // Require that there is enough Ether in the transaction\r\n    require(msg.value >= _land.value, 'Not enough funds');\r\n    // Require land is for sale\r\n    require(_land.forSale == true, 'land is not for sale');\r\n    // Require buyer is not landHolder\r\n    require(_landHolder != msg.sender, 'buyer cannot be land owner');\r\n    // Transfer ownership to buyer\r\n    _land.owner = msg.sender;\r\n    // Mark as purchased\r\n    _land.forSale = false;\r\n    // Update land\r\n    lands[_id] = _land;\r\n    // Pay landHolder\r\n    payable(address(_landHolder)).transfer(msg.value);\r\n    a.safeTransferFrom(_landHolder, msg.sender, _land.landID);\r\n    // Trigger an event\r\n    emit Transfer(_id, _land.location, _land.value, msg.sender, false);\r\n  }\r\n  \r\n  function listLand(uint _id, uint _value) public payable {\r\n    // Fetch the land\r\n    Land memory _land = lands[_id];\r\n    // Make sure the Land is valid\r\n    require(_land.landID > 0 && _land.landID <= landCount, 'land does not exist');\r\n    // Require that there is enough Ether in the transaction\r\n    require(_land.owner == msg.sender, 'you are not the land owner');\r\n    // Require land is not listed\r\n    require(_land.forSale == false, 'land is already listed');\r\n    // Mark as listed\r\n    _land.forSale = true;\r\n    // Update price\r\n    _land.value = _value;\r\n    // Update land\r\n    lands[_id] = _land;\r\n    // Trigger an event\r\n    emit List(_id, _land.location, _value, msg.sender, true);\r\n  }\r\n\r\n}",
  "sourcePath": "C:/Users/Ken/Coding/jewel-joy-homeguru/src/contracts/LandContract.sol",
  "compiler": {
    "name": "solc",
    "version": "0.7.6+commit.7338295f.Emscripten.clang"
  },
  "schemaVersion": "3.4.1",
  "updatedAt": "2021-08-24T07:01:25.529Z",
  "networkType": "ethereum",
  "devdoc": {
    "kind": "dev",
    "methods": {},
    "version": 1
  },
  "userdoc": {
    "kind": "user",
    "methods": {},
    "version": 1
  }
}